:060000000A128A1110280B
:10000800FE00030EF8000408F9000A08FA007F0849
:10001800FB000A128A112D280A128A1113280A12C3
:100028008A11EC270A128A11CC000A128A11ED27CC
:100038000A128A11CD008313393084004C300A1219
:100048008A11E4270A128A11FD0183010A128A1112
:100058002D2B831203138C1E32283328D42898188A
:10006800362837283B28181D3A283B283F281812DD
:1000780018163F281A088C1A422843283E281A08BE
:10008800FC0020307C0203184A284B2854280A30E8
:100098007C060319502851285428BE018C121229B5
:1000A8000A307C06031D59285A28C1283E08443EB8
:1000B8008400831380014430F0005F30F1000A129D
:1000C8008A11E6250A128A1170087104031D6D2829
:1000D8006E2887280330F0000030F1007D08013ECB
:1000E800F200003003180130F3000A128A112425A7
:1000F8000A128A117008FD00013083120313C2002E
:10010800B901BA01B4287D03031D8B288C28B428B3
:100118004430F0005930F1000A128A11E6250A121B
:100128008A1170087104031D9A289B28A0280130A1
:1001380083120313C000B4284430F0005C30F1008F
:100148000A128A11E6250A128A1170087104031D21
:10015800AE28AF28B428013083120313BF00B42897
:1001680083120313BE018230F700DD30F600F60B70
:10017800BB28F70BBB28C028D12807303E0203183C
:10018800C628C728D0283E08443E84007C0883132C
:1001980080000130BE07D128BE01831203138C12E0
:1001A8000C1CD728D828EC280C100B308F00DC301A
:1001B8008E000130C10702304102031CE428E52803
:1001C800EC28C1010130B9070318BA0A0030BA0790
:1001D8008B1CEF28F02812298B104130F700EE30E5
:1001E800F600F60BF528F70BF52800000330F000B1
:1001F8000030F1007D08013EF200003003180130A4
:10020800F3000A128A1124250A128A117008FD00C7
:10021800013083120313C200B901BA017B08FF0041
:100228007A088A0079088400780E8300FE0E7E0E14
:100238000900D72905110514851005120A128A111B
:1002480059270A128A110030831203133A020A301E
:1002580003193902031C312932293529B101B201A8
:100268003E290A30B00039083002B1003A090318B3
:10027800013EB2003108BB003B08043EBC00003020
:100288003A020B3003193902031C4B294C29E72980
:10029800B901BA010130BD00E7290510851405121E
:1002A80000303A02033003193902031C5C295D2926
:1002B8006029B301B40169290330B000390830025C
:1002C800B3003A090318013EB4003308BB003B08E9
:1002D800BC0000303A02043003193902031C7529A6
:1002E8007629E729B901BA010230BD00E7290515C9
:1002F8000510851005120A128A1159270A128A1147
:100308000030831203133A020F3003193902031C19
:100318008E298F299229B501B6019B290F30B0008B
:1003280039083002B5003A090318013EB60035080D
:10033800BC003C08043EBB0000303A0210300319F0
:100348003902031CA829A929E729B901BA010330F0
:10035800BD00E72985110516851000303A020330E3
:1003680003193902031CB929BA29BD29B701B801F3
:10037800C6290330B00039083002B7003A0903181B
:10038800013EB8003708BC003C08BB0000303A0208
:10039800043003193902031CD229D329E729B901EA
:1003A800BA01BD01E729831203133D08003A031976
:1003B8001E29013A03195129033A03197B29013AE5
:1003C8000319AE29E72942080319EB29EC29F0297A
:1003D800C201B901BA01BD013C08A8003B080A12D4
:1003E8008A1198220A128A11080083120313A8009E
:1003F8002808CE0000300A128A11C9260A128A116A
:10040800273083120313A700F430A600A60B0A2A8C
:10041800A70B0A2A000003300A128A11E8260A12DA
:100428008A11073083120313A7007C30A600A60B9D
:100438001B2AA70B1B2A000003300A128A11E82680
:100448000A128A11073083120313A7007C30A60012
:10045800A60B2C2AA70B2C2A000003300A128A119B
:10046800E8260A128A11073083120313A7007C308A
:10047800A600A60B3D2AA70B3D2A000002300A124F
:100488008A11E8260A128A11073083120313A7007B
:100498007C30A600A60B4E2AA70B4E2A0000283057
:1004A8000A128A11E8260A128A11413083120313AC
:1004B800A700ED30A600A60B5F2AA70B5F2A642AC7
:1004C8000C300A128A11E8260A128A114130831266
:1004D8000313A700ED30A600A60B702AA70B702AFD
:1004E800752A01300A128A11E8260A128A11413047
:1004F80083120313A700ED30A600A60B812AA70BD1
:10050800812A862A06300A128A11E8260A128A11D6
:10051800413083120313A700ED30A600A60B922AE0
:10052800A70B922A972A080083120313AF000A30F8
:10053800A0000030A1002F08A900AA012908A200E4
:100548002A08A3000A128A1166240A128A11831241
:1005580003132008AB000A30A0000030A1002F08C8
:10056800A900AA012908A2002A08A3000A128A11D0
:10057800CB240A128A11831203132008AC000A3014
:10058800A0000030A1002808A900AA012908A2009B
:100598002A08A3000A128A1166240A128A118312F1
:1005A80003132008AD000A30A0000030A10028087D
:1005B800A900AA012908A2002A08A3000A128A1180
:1005C800CB240A128A11831203132008AE002E08C6
:1005D800013E84000A128A1100240A128A110A12A2
:1005E8008A1106270A128A11831203132D08013E65
:1005F80084000A128A1100240A128A110A128A1126
:1006080006270A128A11831203132C08013E84005C
:100618000A128A1100240A128A110A128A1106275C
:100628000A128A11831203132B08013E84000A124E
:100638008A1100240A128A110A128A1106270A123C
:100648008A1183120313071500008312031307117D
:1006580008000A128A1165260A128A110A128A11DA
:1006680041270A128A110A128A1185270A128A1149
:100678000A128A11C5270A128A114E300A128A11E3
:10068800F9210A128A11831203134C087D060319F3
:100698004E2B4F2BAB2B0A128A11AA270A128A114A
:1006A80083120313A601A60A01300A128A11B6257D
:1006B8000A128A11872B4F3083120313A6000A12DD
:1006C8008A1116260A128A11922B1B3083120313E1
:1006D800A6000A128A1116260A128A11922B433092
:1006E80083120313A6000A128A1116260A128A1107
:1006F800922B363083120313A6000A128A1116268B
:100708000A128A11922B7D08003A03195F2B013ACD
:100718000319692B033A0319732B7D2B7D08831268
:100728000313CC00AB2B0A128A111D210A128A115D
:10073800472B0A128A118A260A128A11472B0A1293
:100748008A117B250A128A11472BFD01472B7D0848
:10075800003A0319972B013A03199D2B033A031901
:0A076800A32BA92B0A128A111028F6
:1008000004308A000408840A82070034C034F934B2
:10081000A434B034993492348234F834803490342F
:10082000253464342C34253464342C342534643435
:100830002C34253464342C34253464342C34003482
:100840004D34693464346E346934673468347434D4
:1008500020344D346F3464346534003425346434CA
:100860002C34253464342C34253464342C3425342D
:1008700064340A34003455346E346B346E346F345F
:1008800077346E3420344D346F346434653400343E
:100890004D3461346E34753461346C3420344D34ED
:1008A0006F346434653400344134753474346F34D7
:1008B00020344D346F346434653400345234313470
:1008C00000345234323400344D3400348312031374
:1008D000A501A11F6C2C6D2C742CA009A109A00AE4
:1008E0000319A10A0130A500A31F772C782C7F2CB7
:1008F000A209A309A20A0319A30A0130A506A601A9
:10090000A701200821040319862C872CBC2C013058
:10091000A400932C01300310A00DA10DFF3E031D78
:100920008B2C0130A407A11F962C972C8A2C013008
:100930000310A60DA70DFF3E031D982C21082302CE
:10094000031DA42C20082202031CA72CA82CAF2CCA
:100950002008A2022108031CA303A30226140130CD
:100960000310A10CA00CFF3E031DB02C0130A4020B
:10097000031DBB2CBC2C972C25080319C02CC12CA3
:10098000C62CA609A709A60A0319A70A2708A100C9
:100990002608A000080083120313A501A31FD12C71
:1009A000D22CD92CA209A309A20A0319A30A013047
:1009B000A500A11FDC2CDD2CE22CA009A109A00AB6
:1009C0000319A10A200821040319E72CE82C152D8E
:1009D0000130A400F42C01300310A00DA10DFF3E46
:1009E000031DEC2C0130A407A11FF72CF82CEB2CD5
:1009F00021082302031DFE2C20082202031C012DC6
:100A0000022D082D2008A2022108031CA303A30223
:100A100001300310A10CA00CFF3E031D092D013075
:100A2000A402031D142D152DF82C25080319192DCA
:100A30001A2D1F2DA209A309A20A0319A30A23082C
:100A4000A1002208A0000800F501F31F282D292D80
:100A5000302DF209F309F20A0319F30A0130F50007
:100A6000F11F332D342D392DF009F109F00A031946
:100A7000F10A7008710403193E2D3F2D6C2D0130D1
:100A8000F4004B2D01300310F00DF10DFF3E031D5E
:100A9000432D0130F407F11F4E2D4F2D422D7108CB
:100AA0007302031D552D70087202031C582D592D19
:100AB0005F2D7008F2027108031CF303F30201308A
:100AC0000310F10CF00CFF3E031D602D0130F40209
:100AD000031D6B2D6C2D4F2D75080319702D712D75
:100AE000762DF209F309F20A0319F30A7308F100EB
:100AF0007208F00008000A128A113E260A128A11B2
:100B0000831203138618852D862D8B2D4003031D1C
:100B10008A2D8B2D982D05110514851005120A12AA
:100B20008A1159270A128A1183120313C001AD2DAD
:100B300006199B2D9C2DA12D3F03031DA02DA12D3A
:100B4000AD2D05150510851005120A128A115927B9
:100B50000A128A1183120313BF0142080319B12D2F
:100B6000B22DB52DC201B901BA01080083120313D9
:100B7000A700DA2D2608BF3E0A128A11E8260A12BB
:100B80008A11E52D2608933E0A128A11E8260A12D8
:100B90008A11E52D2608D33E0A128A11E8260A1288
:100BA0008A11E52D26087F3E0A128A11E8260A12CC
:100BB0008A11E52D2708023A0319BA2D013A0319C3
:100BC000C22D073A0319CA2DD22D0800EB2D013092
:100BD000F0070130F107710884000A128A1100241D
:100BE0000A128A11F200700884008313000872064A
:100BF000031DFB2DFC2D032E700884000008031D2F
:100C0000022E032EE72D710884000A128A11002497
:100C10000A128A11F200700884000008F3007208BA
:100C20007302F000F101031CF103080083120313A7
:100C3000A701A801302E2708260784000A128A116E
:100C400000240A128A110A128A11AA260A128A118B
:100C5000013083120313A7070318A80A0030A8075E
:100C60002708260784000A128A1100240A128A1112
:100C7000003A031D3C2E3D2E1B2E08008312031349
:100C8000A401A501FF300A128A1106270A128A114F
:100C9000013083120313A4070318A50A0030A50727
:100CA0002508803AFF0080307F02031D592E08304E
:100CB0002402031C5C2E5D2E422E831203130715A3
:100CC000000083120313071108008316031788011D
:100CD00089018316031385018312031385010730ED
:100CE00083160313860083120313860183160313EE
:100CF0008701831203138701831603138901871564
:100D000007168312031385100510051105128511AE
:100D1000851208000A128A113E260A128A118312CD
:100D20000313051105108512851139083A040319BA
:100D30009A2E9B2EA12E0230850610308506B90111
:100D4000BA0142080319A52EA62EA92EC201B90187
:100D5000BA01080083120313A5000130C30025085F
:100D6000F0390A128A1124270A128A1183120313F6
:100D70002508A40003300310A40DFF3E031DBB2E65
:100D80000310240DF0390A128A1124270A128A113D
:100D9000080083120313A1000A128A11DB270A122A
:100DA0008A11831203134E080A128A1198270A1215
:100DB0008A118312031321084D040A128A119827FD
:100DC0000A128A110A128A11D2270A128A110800FD
:100DD00083120313A500C3012508F0390A128A11F2
:100DE00024270A128A11831203132508A400033052
:100DF0000310A40DFF3E031DF82E0310240DF0393F
:100E00000A128A1124270A128A1108008312031376
:100E1000A2000730A3002208A100230A112F03100B
:100E2000A10CFF3E031D0F2F210801390A128A1160
:100E300070270A128A11FF3083120313A307A31F1E
:100E4000222F232F0B2F080083120313A300430824
:100E5000A304230804380A128A11C9260A128A1127
:100E6000831203132308FB390A128A11C9260A12B6
:100E70008A110F3083120313A200A20B3D2F402FC3
:100E8000080019308316031399008316031787117E
:100E90008316031318151812831203139817831659
:100EA00003139816831203131816831603138C1654
:100EB00008008312031305185E2F622F8312031399
:100EC0008516652F8312031385120519682F6C2F61
:100ED0008312031385156F2F8312031385110800E6
:100EE00083120313A0002008031D772F7B2F83128A
:100EF000031387147E2F8312031387100714000037
:100F0000831203130710000008000B168316031347
:100F1000011731308312031390000B308F00DC3047
:100F20008E000C10831603130C140B178B1708007C
:100F300083120313A0000A128A11B8270A128A1119
:100F400083120313200893008C1DA72FA82FA42F12
:100F50008C11080001300A128A11E8260A128A113F
:100F60000C3083120313A600A60BB42F0000080058
:100F7000831603131419BD2FBE2FB82F11081F3964
:100F8000031DC32FC42FB82F08002830831203136A
:100F9000940083160313910194010930930087157F
:100FA000071608000A128A11B8270A128A11831636
:100FB0000313111508000A128A11B8270A128A11A0
:100FC000831603131114080064008001840A0406C8
:0C0FD000031900340406E52FFF34083438
:04400E00D723FF3F76
:00000001FF
