:100000000A128A111028FF34FE00030EF8000408BB
:10001000F9000A08FA007F08FB000A128A11292950
:100020000A128A1113280A128A1103200A128A114D
:10003000EE00831790308400B0300A128A15F52341
:100040000A128A118313CA308400DE300A128A151C
:10005000F5230A128A11623084006E300A128A1562
:10006000F5230A128A11FD0183010A128A11952BC8
:10007000831203132F0884008313000884000A12DC
:100080008A1100270A128A11253A031D4828492897
:100090000F292F0884000130800783160313D20133
:1000A000D301003083120313E400FF3083160313DF
:1000B000D400FF30D500831203132F0884000008FA
:1000C000B400340884000A128A1100270A128A1127
:1000D000643A03196C286D287928340884000A12C0
:1000E0008A1100270A128A11693A031D7828792893
:1000F0000729300884000008FF00023080077F08CD
:1001000084000008B500840A0008B6002F088400A7
:100110003408013E80002030B900B61B9028922898
:10012000013093280030B3000130B9023908903E05
:1001300084000A30A0000030A1003608A300350872
:10014000A2000A128A1159270A128A118312031374
:100150002108A7002008A6000A128A1536240A12D0
:100160008A11831203132608303E831780000A3059
:10017000A0000030A1003608A3003508A2000A1232
:100180008A1137260A128A11831203132108B60036
:100190002008B500350836040319CF28D028D52803
:1001A0003908031DD428D528942839080319D928DB
:1001B000DA28002933080319DE28DF280029013056
:1001C000B9023908903E84002D3083178000002941
:1001D0003908903E840083170008B100B20131084D
:1001E000A0003208A1002D08A2002E08A3000A12C8
:1001F0008A11F5220A128A11013083120313B907FA
:1002000020303906031D05290629E82828298312EC
:1002100003132F08840001308313800728292F0837
:100220008400000884000A128A1100270A128A1129
:10023000B100B2013108A0003208A1002D08A200CF
:100240002E08A3000A128A11F5220A128A11072920
:100250000800831203138C1E2E292F29D0299818E9
:10026000322933293729181D362937293B291812F5
:1002700018163B291A088C1A3E293F293A291A08D0
:10028000FC0020307C0203184629472950290A30F7
:100290007C0603194C294D295029E8018C120E2A9D
:1002A0000A307C06031D55295629BD296808D63E0B
:1002B000840083138001D630F0005230F1000A121E
:1002C0008A1562260A128A1170087104031D6929B1
:1002D0006A2983290330F0000030F1007D08013ED7
:1002E000F200003003180130F3000A128A15A92722
:1002F0000A128A117008FD00013083120313EC000A
:10030000E201E301B0297D03031D87298829B02973
:10031000D630F0004C30F1000A128A1562260A121B
:100320008A1170087104031D962997299C290130B0
:1003300083120313EA00B029D630F0004F30F100E9
:100340000A128A1562260A128A1170087104031DA6
:10035000AA29AB29B029013083120313E900B0297F
:1003600083120313E8018230F700DD30F600F60B4C
:10037000B729F70BB729BC29CD2907306802031824
:10038000C229C329CC296808D63E84007C0883137F
:1003900080000130E807CD29E801831203138C1295
:1003A0000C1CD329D429E8290C100B308F00DC3029
:1003B0008E000130EB0702306B02031CE029E129BB
:1003C000E829EB010130E2070318E30A0030E307F4
:1003D0008B1CEB29EC290E2A8B104130F700EE30F4
:1003E000F600F60BF129F70BF12900000330F000BD
:1003F0000030F1007D08013EF200003003180130AA
:10040000F3000A128A15A9270A128A117008FD0042
:10041000013083120313EC00E201E3017B08FF00CB
:100420007A088A0079088400780E8300FE0E7E0E1A
:100430000900D32A05110514851005120A128A1520
:100440008A240A128A1100308312031363020A30CD
:1004500003196202031C2D2A2E2A312AB101B2018E
:100460003A2A0A30B00062083002B100630903186A
:10047000013EB2003108E5006508043EE6000030A8
:1004800063020B3003196202031C472A482AE32A3D
:10049000E201E3010130E700E32A051085140512AB
:1004A00000306302033003196202031C582A592AE0
:1004B0005C2AB301B401652A0330B000620830023F
:1004C000B30063090318013EB4003308E500650872
:1004D000E60000306302043003196202031C712A33
:1004E000722AE32AE201E3010230E700E32A05155C
:1004F0000510851005120A128A158A240A128A111B
:1005000000308312031363020F3003196202031CCD
:100510008A2A8B2A8E2AB501B601972A0F30B0009D
:1005200062083002B50063090318013EB6003508C1
:10053000E6006608043EE50000306302103003194F
:100540006202031CA42AA52AE32AE201E301033084
:10055000E700E32A85110516851000306302033099
:1005600003196202031CB52AB62AB92AB701B801D9
:10057000C22A0330B00062083002B70063090318D2
:10058000013EB8003708E6006608E5000030630267
:10059000043003196202031CCE2ACF2AE32AE201A7
:1005A000E301E701E32A831203136708003A031902
:1005B0001A2A013A03194D2A033A0319772A013AF4
:1005C0000319AA2AE32A6C080319E72AE82AEC2A65
:1005D000EC01E201E301E7016608A80065080A12E0
:1005E0008A112A240A128A1108008312031322088E
:1005F00023040319FC2AFD2A032B22082304031DCC
:10060000022B032B0A2B20080A128A15EE230A124A
:100610008A11942B2208093EA40023080318013EE6
:10062000003EA500240884008317251C83130008BE
:10063000A600840A0008A700260827040319212B16
:10064000222B542B2208093EA40023080318013E44
:10065000003EA500240884008317251C831300088E
:10066000A600840A0008A7002208023EA80023086A
:100670000318013E003EA900280884008317291CA6
:1006800083130008AA00840A0008AB002B08803AF4
:10069000AC002708803A2C02031D502B26082A02A2
:1006A0000318532B542B942B83120313220884001A
:1006B0008317231C83130008A400840A0008A500E4
:1006C0002208023EA60023080318013E003EA700B0
:1006D000260884008317271C831300082407A90019
:1006E0002508A8000318A80A801F772BA8038312E7
:1006F00003132808AA002908840083172A1C8313DF
:10070000200880002208023EA40023080318013EAE
:10071000003EA500240884008317251C83130130A4
:100720008007840A0318800A08000A128A157725B0
:100730000A128A110A128A15A1240A128A110A12AF
:100740008A1523240A128A110A128A11BF240A1256
:100750008A11FD01831203136E087D060319B12B64
:10076000B22B0C2C05110510851405160A128A15DA
:100770008A240A128A110A128A1512240A128A116C
:1007800001300A128A155E240A128A11E52B4230C2
:1007900083120313AF000A128A159C250A128A11CC
:1007A000F02B363083120313AF000A128A159C25F2
:1007B0000A128A11F02B1B3083120313AF000A12A6
:1007C0008A159C250A128A11F02B7D08003A03191C
:1007D000C72B013A0319D12B033A0319DB2BF02B5A
:1007E0007D0883120313EE000A128A1148250A12AB
:1007F0008A110C2C0A128A1119220A128A11172C3A
:100800000A128A1525270A128A11172C0A128A152C
:10081000EF240A128A11172C7D08003A0319FA2BCB
:10082000013A0319002C033A0319062C172C0A125B
:100830008A1148250A128A11823083160313C900CF
:10084000DD30C800C80B222CC90B222CAA2B0A129F
:100850008A11102883120313AF000A30A000003061
:10086000A1002F08A900AA012908A2002A08A300B4
:100870000A128A1137260A128A11831203132008DA
:10088000AB000A30A0000030A1002F08A900AA0187
:100890002908A2002A08A3000A128A1159270A125D
:1008A0008A11831203132008AC000A30A000003024
:1008B000A1002808A900AA012908A2002A08A3006B
:1008C0000A128A1137260A128A118312031320088A
:1008D000AD000A30A0000030A1002808A900AA013C
:1008E0002908A2002A08A3000A128A1159270A120D
:1008F0008A11831203132008AE002E08013E8400E3
:100900000A128A1100270A128A110A128A15D124A2
:100910000A128A11831203132D08013E84000A1261
:100920008A1100270A128A110A128A15D1240A1282
:100930008A11831203132C08013E84000A128A11C3
:1009400000270A128A110A128A15D1240A128A1162
:10095000831203132B08013E84000A128A11002718
:100960000A128A110A128A15D1240A128A118312D4
:100970000313071500008312031307110800413009
:1009800083120313B000ED30AF00AF0BC52CB00BDA
:10099000C52CCA2C0A128A15EF230A128A11831257
:1009A0000313B1013108CA3E840083138001013072
:1009B000B10708303102031CDE2CDF2CD22C0A12C6
:1009C0008A150F250A128A1183160313CA010A1207
:1009D0008A150F250A128A1183160313CB010A12F6
:1009E0008A150F250A128A1103300A128A15602708
:1009F0000A128A11073083120313B0007C30AF0053
:100A0000AF0B002DB00B002D000003300A128A1529
:100A100060270A128A11C73083120313AF00102D0A
:100A2000AF0B0F2D132D03300A128A1560270A12FF
:100A30008A11C73083120313AF001E2DAF0B1D2D7B
:100A4000212D02300A128A1560270A128A11C73036
:100A500083120313AF002C2DAF0B2B2D2F2D28301D
:100A60000A128A15C2260A128A110C300A128A1535
:100A7000C2260A128A110E300A128A15C2260A12DA
:100A80008A1101300A128A15C2260A128A11080038
:100A9000A03083120313BF000B30C0007D08D800C4
:100AA000D9015808C1005908C200031005190314E0
:100AB000003003180130DA00DB015A08C3005B087C
:100AC000C400031085180314003003180130DC0043
:100AD000DD015C08C5005D08C6000310051803149D
:100AE000003003180130DE00DF015E08C7005F0838
:100AF000C8006608E000E1016008C9006108CA009A
:100B00000A128A1554250A128A11A030831203137F
:100B1000A0000A128A1574240A128A118312031380
:100B20002008A03EBF002930C0000310851A03141E
:100B3000003003180130D800D9015808C100590805
:100B4000C2000310051A0314003003180130DA0044
:100B5000DB015A08C3005B08C400031085190314A5
:100B6000003003180130DC00DD015C08C5005D08C1
:100B7000C6006508DE00DF015E08C7005F08C80028
:100B80000A128A1554250A128A11A03083120313FF
:100B9000A1000A128A15B9240A128A11080010301D
:100BA00083120313AA002730AB000130831603130E
:100BB000CE000130CF000130D0000130D1000A1248
:100BC0008A150F250A128A1183160313CA010A1205
:100BD0008A150F250A128A11013083160313CB00E0
:100BE0000A128A150F250A128A110130831603137F
:100BF000CC000A128A150F250A128A112C30831292
:100C00000313A400A501A50A4F300A128A11B227C6
:100C10000A128A1183160313CC010A128A150F25B2
:100C20000A128A11013083160313CC000A128A15A6
:100C30000F250A128A1183160313CC010A128A1592
:100C40000F250A128A11013083120313AA02003001
:100C5000031CAB03AB022A082B04031D302E312EDC
:100C6000322E362EAC19352E362EF52D0800831275
:100C70000313A501A11F3D2E3E2E452EA009A1095B
:100C8000A00A0319A10A0130A500A31F482E492E6E
:100C9000502EA209A309A20A0319A30A0130A5062E
:100CA000A601A701200821040319572E582E8D2EC6
:100CB0000130A400642E01300310A00DA10DFF3EF1
:100CC000031D5C2E0130A407A11F672E682E5B2E2A
:100CD00001300310A60DA70DFF3E031D692E21084C
:100CE0002302031D752E20082202031C782E792E64
:100CF000802E2008A2022108031CA303A3022614AD
:100D000001300310A10CA00CFF3E031D812E013009
:100D1000A402031D8C2E8D2E682E25080319912EFA
:100D2000922E972EA609A709A60A0319A70A270833
:100D3000A1002608A000080083120313A0001030B1
:100D4000A2002730A300831603139115AD2E0130A6
:100D5000A2020030031CA303A30283160313911DF8
:100D6000B22EB32EBB2E8312031322082304031DBD
:100D7000BA2EBB2EA72E831222082304031DC12ED8
:100D8000C22EC62E941294160030FF2E1308A10016
:100D90008316031391118312031320080319D12E14
:100DA000D22ED62E831603139116D92E8316031333
:100DB00091121116103083120313A2002730A300E2
:100DC000E72E0130A2020030031CA303A302831606
:100DD0000313111EEC2EED2EF52E831203132208A1
:100DE0002304031DF42EF52EE12E83122208230482
:100DF000031DFB2EFC2EFE2E9412941621080800D3
:100E000007308A000408840A82070034C034F934A9
:100E1000A434B034993492348234F8348034903429
:100E2000253464342C34253464342C34253464342F
:100E30002C34253464342C34253464342C3400347C
:100E40004D34693464346E346934673468347434CE
:100E500020344D346F3464346534003425346434C4
:100E60002C34253464342C34253464342C34253427
:100E700064340A3400344D3461346E347534613472
:100E80006C3420344D346F34643465340034413470
:100E9000753474346F3420344D346F3464346534B5
:100EA00000345234313400345234323400344D344E
:100EB000003483120313A501A31F5F2F602F672F38
:100EC000A209A309A20A0319A30A0130A500A11FC0
:100ED0006A2F6B2F702FA009A109A00A0319A10A7C
:100EE000200821040319752F762FA32F0130A400A9
:100EF000822F01300310A00DA10DFF3E031D7A2F9C
:100F00000130A407A11F852F862F792F21082302E6
:100F1000031D8C2F20082202031C8F2F902F962F49
:100F20002008A2022108031CA303A302013003101E
:100F3000A10CA00CFF3E031D972F0130A402031D3E
:100F4000A22FA32F862F25080319A72FA82FAD2F77
:100F5000A209A309A20A0319A30A2308A1002208CF
:100F6000A000080083120313A8000A128A15EA25BC
:100F70000A128A118312031328080A128A153A26C4
:100F80000A128A1183120313A901D92F83120313A2
:100F900029082407A6002608840000300A128A11B6
:100FA0009C260A128A1183138000013083120313D6
:100FB000A9072508FF3EA600FF3003180030A70050
:100FC0002708803A803C031DE72F26082902031CCE
:100FD000EA2FEB2FC62F8312031329082407A6003C
:100FE0002608840001300A128A119C260A128A11EE
:100FF000831380000A128A1512260A128A11080029
:1017DC0008000A128A1507240A128A1508006400E8
:1017EC008001840A0406031900340406F62B8312C4
:1017FC000313A0000C1E032C042C002C20089900B1
:10180C0008008312031394150930831603139300F5
:10181C00831203139416080001300A128A15C2268B
:10182C000A128A15033083120313B0009730AF00ED
:10183C00AF0B1E2CB00B1E2C08000B1683160313BB
:10184C00011731308312031390000B308F00DC3002
:10185C008E000C10831603130C140B178B17080037
:10186C0083120313A71B3B2C3C2C3D2C482C260924
:10187C00A8002709A900A80A0319A90A2808A60084
:10188C002908A700080083120313A0002008031DD9
:10189C00502C542C831203138714572C83120313CC
:1018AC0087100714000083120313071000000800B0
:1018BC0083120313A90029080319652C662C6B2CC1
:1018CC00013083160313CD006E2C83160313CD0148
:1018DC000A128A150F250A128A150800831203139F
:1018EC002008A2007B2C0130A00720088400831361
:1018FC000008031D822C832C792C22082002A000C6
:10190C00A101A01BA10308008312031305188F2C3F
:10191C00932C831203138516962C831203138512B2
:10192C000519992C9D2C831203138515A02C831259
:10193C0003138511080019308316031399008316BD
:10194C000317871183160313181518128312031328
:10195C0098178316031398168312031318168316FD
:10196C0003138C160800C62C2108840000080A12E8
:10197C008A15FD230A128A15013083120313A1075D
:10198C00831203132108840083130008031DCF2C3A
:10199C00D02CBA2C080083120313A2000730A3002A
:1019AC002208A100230ADC2C0310A10CFF3E031D0E
:1019BC00DA2C210801390A128A1549240A128A15CF
:1019CC00FF3083120313A307A31FED2CEE2CD62C90
:1019DC0008000A128A15C3250A128A1583120313EA
:1019EC000511051085128511620863040319FF2C7B
:1019FC00002D062D0230850610308506E201E3012C
:101A0C006C0803190A2D0B2D0E2DEC01E201E301DC
:101A1C00080083120313A8010310ED0C2808CA3E1A
:101A2C0084008313000803191C2D1D2D1E2DED178A
:101A3C000130A80708302802031C252D262D122D55
:101A4C006D30A300A401A40A4E300A128A15922606
:101A5C000A128A150800831203133C08BE00432D9A
:101A6C003A08AD003B08AE003E30AF003D08B00078
:101A7C000A128A1138200A128A15831203133E089F
:101A8C0084000A128A1100270A128A15003A031DD3
:101A9C00502D512D362DBA01BB0108004130831257
:101AAC000313CC003F08CD000030CE00CF01D00195
:101ABC00D601D7014D30BA000030BB004008BC0045
:101ACC004C30BD000A128A1531250A128A15831270
:101ADC0003134F083F07CB004B088400831380018E
:101AEC0008008316031788018901831603138501E7
:101AFC0083120313850107308316031386008312A8
:101B0C0003138601831603138701831203138701C2
:101B1C008316031389018715071683120313851087
:101B2C000510051105128511851208008312031387
:101B3C002F0884000A128A1100270A128A15003A0B
:101B4C000319A92DAA2DC22D2F0884000A128A115F
:101B5C0000270A128A150A128A15F3260A128A1508
:101B6C00013083120313AF07023083120313B0004A
:101B7C00B00BBE2D00009C2D080083120313A40192
:101B8C00A501FF300A128A15D1240A128A150130D8
:101B9C0083120313A4070318A50A0030A507250810
:101BAC00803AFF0080307F02031DDE2D08302402B6
:101BBC00031CE12DE22DC72D831203130715000022
:101BCC008312031307110800103083120313A000B3
:101BDC002730A100831603131114FA2D0130A00233
:101BEC000030031CA103A10283160313111CFF2D4B
:101BFC00002E082E8312031320082104031D072E28
:101C0C00082EF42D831220082104031D0E2E0F2EF6
:101C1C00112E941294160800103083120313A00096
:101C2C002730A100831603131115222E0130A002B8
:101C3C000030031CA103A10283160313111D272ED0
:101C4C00282E302E8312031320082104031D2F2E5F
:101C5C00302E1C2E831220082104031D362E372E05
:101C6C00392E94129416080083120313A00010301E
:101C7C00A1002730A2008C11200893004B2E0130BC
:101C8C00A1020030031CA203A2028C194E2E4F2E6F
:101C9C00552E21082204031D542E552E452E2108A5
:101CAC002204031D5A2E5B2E5E2E94129416612E66
:101CBC008316031311080800672E0130F00701305A
:101CCC00F107710884000A128A1100270A128A157A
:101CDC00F20070088400831300087206031D772E2F
:101CEC00782E7F2E700884000008031D7E2E7F2E18
:101CFC00632E710884000A128A1100270A128A15B1
:101D0C00F200700884000008F30072087302F000FF
:101D1C00F101031CF103080083120313A6000A123D
:101D2C008A15EA250A128A158312031326080A1249
:101D3C008A153A260A128A1583120313A701B62EA6
:101D4C0027082307A50025088400831300080A121E
:101D5C008A153A260A128A15013083120313A70733
:101D6C0024082702031CBB2EBC2EA62E0A128A1591
:101D7C0012260A128A15080083120313AE000A12E7
:101D8C008A11CF250A128A1583160313CA010A1267
:101D9C008A150F250A128A1583160313CB010A1212
:101DAC008A150F250A128A15831203132E08AD000B
:101DBC0004300310AD0CFF3E031DDF2E2D080A125C
:101DCC008A1560270A128A15831203132E080A1229
:101DDC008A1560270A128A15080083120313AE00B5
:101DEC000A128A11CF250A128A15013083160313A1
:101DFC00CA000A128A150F250A128A1583160313B4
:101E0C00CB010A128A150F250A128A1583120313A5
:101E1C002E08AD0004300310AD0CFF3E031D112F36
:101E2C002D080A128A1560270A128A1583120313C9
:101E3C002E080A128A1560270A128A1508000A123F
:101E4C008A15C3250A128A158312031386182F2F9D
:101E5C00302F352F6A03031D342F352F422F0511D8
:101E6C000514851005120A128A158A240A128A157D
:101E7C0083120313EA01572F0619452F462F4B2FB8
:101E8C006903031D4A2F4B2F572F0515051085107D
:101E9C0005120A128A158A240A128A158312031350
:101EAC00E9016C0803195B2F5C2F5F2FEC01E20139
:101EBC00E301080083120313A900A91D662F672FE5
:101ECC006C2F013083160313D1006F2F831603136D
:101EDC00D10183120313291D742F752F7A2F013012
:101EEC0083160313D0007D2F83160313D0018312A6
:101EFC000313A91C822F832F882F01308316031301
:101F0C00CF008B2F83160313CF0183120313291CCD
:101F1C00902F912F962F013083160313CE00992FFB
:101F2C0083160313CE010130CC000A128A150F253B
:101F3C000A128A1583160313CC010A128A150F256F
:101F4C000A128A150800F501F31FAD2FAE2FB52F1D
:101F5C00F209F309F20A0319F30A0130F500F11F33
:101F6C00B82FB92FBE2FF009F109F00A0319F10AA5
:101F7C00700871040319C32FC42FF12F0130F40022
:101F8C00D02F01300310F00DF10DFF3E031DC82FB3
:101F9C000130F407F11FD32FD42FC72F7108730210
:101FAC00031DDA2F70087202031CDD2FDE2FE42FC5
:101FBC007008F2027108031CF303F30201300310E2
:101FCC00F10CF00CFF3E031DE52F0130F402031D54
:101FDC00F02FF12FD42F75080319F52FF62FFB2FA7
:101FEC00F209F309F20A0319F30A7308F1007208F3
:041FFC00F0000800E9
:04400E00D423FF3F79
:00000001FF
